{
  "_format": "hh-sol-artifact-1",
  "contractName": "AkiliLog",
  "sourceName": "src/AkiliLog.sol",
  "abi": [
    {
      "inputs": [],
      "stateMutability": "nonpayable",
      "type": "constructor"
    },
    {
      "anonymous": false,
      "inputs": [
        {
          "indexed": true,
          "internalType": "address",
          "name": "agent",
          "type": "address"
        },
        {
          "indexed": false,
          "internalType": "bool",
          "name": "allowed",
          "type": "bool"
        }
      ],
      "name": "AgentSet",
      "type": "event"
    },
    {
      "anonymous": false,
      "inputs": [
        {
          "indexed": true,
          "internalType": "address",
          "name": "agent",
          "type": "address"
        },
        {
          "indexed": true,
          "internalType": "bytes32",
          "name": "userHash",
          "type": "bytes32"
        },
        {
          "indexed": false,
          "internalType": "string",
          "name": "action",
          "type": "string"
        },
        {
          "indexed": false,
          "internalType": "uint256",
          "name": "timestamp",
          "type": "uint256"
        }
      ],
      "name": "DecisionLogged",
      "type": "event"
    },
    {
      "anonymous": false,
      "inputs": [
        {
          "indexed": true,
          "internalType": "bytes32",
          "name": "userHash",
          "type": "bytes32"
        },
        {
          "indexed": false,
          "internalType": "uint256",
          "name": "idleDays",
          "type": "uint256"
        },
        {
          "indexed": false,
          "internalType": "string",
          "name": "gdBalance",
          "type": "string"
        },
        {
          "indexed": false,
          "internalType": "uint256",
          "name": "timestamp",
          "type": "uint256"
        }
      ],
      "name": "GDClaimAlertSent",
      "type": "event"
    },
    {
      "inputs": [],
      "name": "decisionCount",
      "outputs": [
        {
          "internalType": "uint256",
          "name": "",
          "type": "uint256"
        }
      ],
      "stateMutability": "view",
      "type": "function"
    },
    {
      "inputs": [
        {
          "internalType": "uint256",
          "name": "",
          "type": "uint256"
        }
      ],
      "name": "decisions",
      "outputs": [
        {
          "internalType": "address",
          "name": "agent",
          "type": "address"
        },
        {
          "internalType": "bytes32",
          "name": "userHash",
          "type": "bytes32"
        },
        {
          "internalType": "string",
          "name": "action",
          "type": "string"
        },
        {
          "internalType": "uint256",
          "name": "timestamp",
          "type": "uint256"
        }
      ],
      "stateMutability": "view",
      "type": "function"
    },
    {
      "inputs": [
        {
          "internalType": "uint256",
          "name": "index",
          "type": "uint256"
        }
      ],
      "name": "getDecision",
      "outputs": [
        {
          "components": [
            {
              "internalType": "address",
              "name": "agent",
              "type": "address"
            },
            {
              "internalType": "bytes32",
              "name": "userHash",
              "type": "bytes32"
            },
            {
              "internalType": "string",
              "name": "action",
              "type": "string"
            },
            {
              "internalType": "uint256",
              "name": "timestamp",
              "type": "uint256"
            }
          ],
          "internalType": "struct AkiliLog.Decision",
          "name": "",
          "type": "tuple"
        }
      ],
      "stateMutability": "view",
      "type": "function"
    },
    {
      "inputs": [
        {
          "internalType": "string",
          "name": "userId",
          "type": "string"
        }
      ],
      "name": "getUserStats",
      "outputs": [
        {
          "internalType": "uint256",
          "name": "totalDecisions",
          "type": "uint256"
        },
        {
          "internalType": "uint256",
          "name": "lastActivityAt",
          "type": "uint256"
        }
      ],
      "stateMutability": "view",
      "type": "function"
    },
    {
      "inputs": [
        {
          "internalType": "address",
          "name": "",
          "type": "address"
        }
      ],
      "name": "isAgent",
      "outputs": [
        {
          "internalType": "bool",
          "name": "",
          "type": "bool"
        }
      ],
      "stateMutability": "view",
      "type": "function"
    },
    {
      "inputs": [
        {
          "internalType": "string",
          "name": "userId",
          "type": "string"
        },
        {
          "internalType": "string",
          "name": "action",
          "type": "string"
        }
      ],
      "name": "logDecision",
      "outputs": [],
      "stateMutability": "nonpayable",
      "type": "function"
    },
    {
      "inputs": [
        {
          "internalType": "string",
          "name": "userId",
          "type": "string"
        },
        {
          "internalType": "uint256",
          "name": "idleDays",
          "type": "uint256"
        },
        {
          "internalType": "string",
          "name": "gdBalance",
          "type": "string"
        }
      ],
      "name": "logGDClaimAlert",
      "outputs": [],
      "stateMutability": "nonpayable",
      "type": "function"
    },
    {
      "inputs": [],
      "name": "owner",
      "outputs": [
        {
          "internalType": "address",
          "name": "",
          "type": "address"
        }
      ],
      "stateMutability": "view",
      "type": "function"
    },
    {
      "inputs": [
        {
          "internalType": "address",
          "name": "agent",
          "type": "address"
        },
        {
          "internalType": "bool",
          "name": "allowed",
          "type": "bool"
        }
      ],
      "name": "setAgent",
      "outputs": [],
      "stateMutability": "nonpayable",
      "type": "function"
    },
    {
      "inputs": [
        {
          "internalType": "bytes32",
          "name": "",
          "type": "bytes32"
        }
      ],
      "name": "userDecisionCount",
      "outputs": [
        {
          "internalType": "uint256",
          "name": "",
          "type": "uint256"
        }
      ],
      "stateMutability": "view",
      "type": "function"
    },
    {
      "inputs": [
        {
          "internalType": "bytes32",
          "name": "",
          "type": "bytes32"
        }
      ],
      "name": "userLastActivityAt",
      "outputs": [
        {
          "internalType": "uint256",
          "name": "",
          "type": "uint256"
        }
      ],
      "stateMutability": "view",
      "type": "function"
    }
  ],
  "bytecode": "0x608060405234801561001057600080fd5b50600580546001600160a01b031916339081179091556000908152600460205260409020805460ff19166001179055610d7b8061004e6000396000f3fe608060405234801561001057600080fd5b50600436106100a95760003560e01c80638da5cb5b116100715780638da5cb5b1461015a57806397d8c67614610185578063af75484814610198578063b829df82146101b8578063d90bb996146101db578063dcfbf2d6146101fb57600080fd5b806305302588146100ae578063100b63cb146100e1578063114374e7146100ea5780631ffbb064146101125780632b04c5fd14610145575b600080fd5b6100ce6100bc366004610856565b60036020526000908152604090205481565b6040519081526020015b60405180910390f35b6100ce60015481565b6100fd6100f83660046108b1565b61020e565b604080519283526020830191909152016100d8565b61013561012036600461090f565b60046020526000908152604090205460ff1681565b60405190151581526020016100d8565b610158610153366004610931565b610260565b005b60055461016d906001600160a01b031681565b6040516001600160a01b0390911681526020016100d8565b61015861019336600461099d565b610432565b6101ab6101a6366004610856565b610530565b6040516100d89190610a1f565b6101cb6101c6366004610856565b6106ac565b6040516100d89493929190610a6d565b6100ce6101e9366004610856565b60026020526000908152604090205481565b610158610209366004610aa5565b61077b565b60008060008484604051602001610226929190610b1f565b60408051601f19818403018152918152815160209283012060009081526002835281812054600390935220549093509150505b9250929050565b3360009081526004602052604090205460ff166102bd5760405162461bcd60e51b8152602060048201526016602482015275105ada5b1a531bd9ce881b9bdd08185b881859d95b9d60521b60448201526064015b60405180910390fd5b600084846040516020016102d2929190610b1f565b60408051601f1981840301815282825280516020918201206080840183523384528382018190528251601f8701839004830281018301845286815290945060009392830191879087908190840183828082843760009201829052509385525050426020938401525083546001808201865594825290829020835160049092020180546001600160a01b0319166001600160a01b039092169190911781559082015192810192909255604081015190919060028201906103919082610bd0565b5060608201518160030155505060018060008282546103b09190610c90565b909155505060008181526002602052604081208054600192906103d4908490610c90565b90915550506000818152600360205260409081902042908190559051829133917ff578081bb809bd8b1b39d9fd7fa92bd2f96892d9051d399f15de16bf99d7b162916104239188918891610ce0565b60405180910390a35050505050565b6005546001600160a01b031633146104825760405162461bcd60e51b815260206004820152601360248201527220b5b4b634a637b39d103737ba1037bbb732b960691b60448201526064016102b4565b6001600160a01b0382166104d15760405162461bcd60e51b8152602060048201526016602482015275416b696c694c6f673a207a65726f206164647265737360501b60448201526064016102b4565b6001600160a01b038216600081815260046020908152604091829020805460ff191685151590811790915591519182527fdfbbd189290ad6ccafc74f11e514df22fe2c990b1f70c48e80c0c152ccf16415910160405180910390a25050565b604080516080810182526000808252602082018190526060928201839052918101829052905482106105a45760405162461bcd60e51b815260206004820152601760248201527f416b696c694c6f673a206f7574206f6620626f756e647300000000000000000060448201526064016102b4565b600082815481106105b7576105b7610d04565b90600052602060002090600402016040518060800160405290816000820160009054906101000a90046001600160a01b03166001600160a01b03166001600160a01b031681526020016001820154815260200160028201805461061990610b45565b80601f016020809104026020016040519081016040528092919081815260200182805461064590610b45565b80156106925780601f1061066757610100808354040283529160200191610692565b820191906000526020600020905b81548152906001019060200180831161067557829003601f168201915b505050505081526020016003820154815250509050919050565b600081815481106106bc57600080fd5b60009182526020909120600490910201805460018201546002830180546001600160a01b0390931694509092916106f290610b45565b80601f016020809104026020016040519081016040528092919081815260200182805461071e90610b45565b801561076b5780601f106107405761010080835404028352916020019161076b565b820191906000526020600020905b81548152906001019060200180831161074e57829003601f168201915b5050505050908060030154905084565b3360009081526004602052604090205460ff166107d35760405162461bcd60e51b8152602060048201526016602482015275105ada5b1a531bd9ce881b9bdd08185b881859d95b9d60521b60448201526064016102b4565b600085856040516020016107e8929190610b1f565b604051602081830303815290604052805190602001209050807fcaa10d471de80cfa7d364cba510f3ecb419ab2d4b3fafae7717400b02f7fcfe5858585426040516108369493929190610d1a565b60405180910390a260009081526003602052604090204290555050505050565b60006020828403121561086857600080fd5b5035919050565b60008083601f84011261088157600080fd5b50813567ffffffffffffffff81111561089957600080fd5b60208301915083602082850101111561025957600080fd5b600080602083850312156108c457600080fd5b823567ffffffffffffffff8111156108db57600080fd5b6108e78582860161086f565b90969095509350505050565b80356001600160a01b038116811461090a57600080fd5b919050565b60006020828403121561092157600080fd5b61092a826108f3565b9392505050565b6000806000806040858703121561094757600080fd5b843567ffffffffffffffff8082111561095f57600080fd5b61096b8883890161086f565b9096509450602087013591508082111561098457600080fd5b506109918782880161086f565b95989497509550505050565b600080604083850312156109b057600080fd5b6109b9836108f3565b9150602083013580151581146109ce57600080fd5b809150509250929050565b6000815180845260005b818110156109ff576020818501810151868301820152016109e3565b506000602082860101526020601f19601f83011685010191505092915050565b6020815260018060a01b038251166020820152602082015160408201526000604083015160806060840152610a5760a08401826109d9565b9050606084015160808401528091505092915050565b60018060a01b0385168152836020820152608060408201526000610a9460808301856109d9565b905082606083015295945050505050565b600080600080600060608688031215610abd57600080fd5b853567ffffffffffffffff80821115610ad557600080fd5b610ae189838a0161086f565b9097509550602088013594506040880135915080821115610b0157600080fd5b50610b0e8882890161086f565b969995985093965092949392505050565b8183823760009101908152919050565b634e487b7160e01b600052604160045260246000fd5b600181811c90821680610b5957607f821691505b602082108103610b7957634e487b7160e01b600052602260045260246000fd5b50919050565b601f821115610bcb576000816000526020600020601f850160051c81016020861015610ba85750805b601f850160051c820191505b81811015610bc757828155600101610bb4565b5050505b505050565b815167ffffffffffffffff811115610bea57610bea610b2f565b610bfe81610bf88454610b45565b84610b7f565b602080601f831160018114610c335760008415610c1b5750858301515b600019600386901b1c1916600185901b178555610bc7565b600085815260208120601f198616915b82811015610c6257888601518255948401946001909101908401610c43565b5085821015610c805787850151600019600388901b60f8161c191681555b5050505050600190811b01905550565b80820180821115610cb157634e487b7160e01b600052601160045260246000fd5b92915050565b81835281816020850137506000828201602090810191909152601f909101601f19169091010190565b604081526000610cf4604083018587610cb7565b9050826020830152949350505050565b634e487b7160e01b600052603260045260246000fd5b848152606060208201526000610d34606083018587610cb7565b90508260408301529594505050505056fea2646970667358221220b175928e6a997dd78806919827382b29425991ff97f2494bc22775a7af20560164736f6c63430008180033",
  "linkReferences": {},
  "deployedLinkReferences": {}
}